:020000040800F2
:1000000000500020353E0008293D00082B3D000827
:1000100000000000000000000000000000000000E0
:100020000000000000000000000000002D3D00085E
:1000300000000000000000002F3D0008313D0008D6
:10004000853E0008853E0008393D0008853E0008D1
:10005000493D00084B3D0008853E00085B3D000817
:10006000853E0008713D0008853E0008853E000879
:10007000813D0008853E0008913D0008853E00084E
:10008000853E0008853E0008853E0008000000000F
:10009000853E0008853E0008853E0008853E000834
:1000A000853E0008853E0008853E0008A93D000801
:1000B000B93D0008C93D000800000000853E000869
:1000C00010B5064C2378002B07D1054B002B02D02E
:1000D000044800E000BF0123237010BD0800002089
:1000E00000000000343F0008044B10B5002B03D083
:1000F0000349044800E000BF10BDC04600000000F6
:100100000C000020343F000802780B78002A03D04E
:10011000013001319A42F7D0D01A70470023C25CF7
:100120000133002AFBD1581E7047000002B471460B
:1001300049084900095C49008E4402BC7047C0462A
:1001400003B47146490840004900095E49008E44E5
:1001500003BC7047002243088B4274D303098B42CF
:100160005FD3030A8B4244D3030B8B4228D3030C87
:100170008B420DD3FF22090212BA030C8B4202D329
:100180001212090265D0030B8B4219D300E0090A51
:10019000C30B8B4201D3CB03C01A5241830B8B425A
:1001A00001D38B03C01A5241430B8B4201D34B0343
:1001B000C01A5241030B8B4201D30B03C01A5241A8
:1001C000C30A8B4201D3CB02C01A5241830A8B422D
:1001D00001D38B02C01A5241430A8B4201D34B0216
:1001E000C01A5241030A8B4201D30B02C01A52417A
:1001F000CDD2C3098B4201D3CB01C01A524183092E
:100200008B4201D38B01C01A524143098B4201D367
:100210004B01C01A524103098B4201D30B01C01A92
:100220005241C3088B4201D3CB00C01A524183080C
:100230008B4201D38B00C01A524143088B4201D339
:100240004B00C01A5241411A00D201465241104699
:100250007047FFE701B5002000F006F802BDC04678
:100260000029F7D076E770477047C046002B11D1C0
:10027000002A0FD1002900D1002802D00021C94353
:10028000081C07B4024802A14018029003BDC046F2
:10029000D9FFFFFF03B4684601B5029800F006F8E5
:1002A000019B9E4602B00CBC7047C046F0B5574655
:1002B0004E464546DE46E0B5040083B00D0092464A
:1002C00099468B422FD82CD04946504600F0CCF8A6
:1002D00029000600200000F0C7F8331A9846203B9A
:1002E0009B4600D574E053465A4693401F00534640
:1002F000424693401E00AF4229D826D05B46A41B3D
:10030000BD41002B00DA79E0002200230092019326
:1003100001235A46934001930123424693400093A0
:1003200019E08242D0D900220023009201930C9B55
:10033000002B01D01C605D600098019903B03CBCAB
:1003400090469946A246AB46F0BDA342D6D90022BC
:100350000023009201934346002BE8D0FB0772086C
:100360001A4346467B080EE0AB4201D1A2420CD8AC
:10037000A41A9D41012024196D410021013E241839
:100380004D41002E06D0AB42EED9013E24196D41FD
:10039000002EF8D15B460098019900196941002BA5
:1003A00022DB2B005A46D3402A004446E2401C0080
:1003B0005B461500002B2CDB26009E4033002600F8
:1003C0004746BE403200801A994100900191AEE745
:1003D000424620239B1A5246DA40414613004A46C1
:1003E0008A4017001F4382E7424620239B1A2A00B7
:1003F00046469A402300F3401343D5E74246202364
:1004000000219B1A0022009101920122DA40019200
:1004100082E74246202326009B1ADE402F00B44686
:10042000974066463B003343C9E7C0461C21012381
:100430001B04984201D3000C10391B0A984201D3C7
:10044000000A08391B09984201D30009043902A2A5
:10045000105C40187047C04604030202010101010C
:10046000000000000000000010B5002903D1FFF7D4
:10047000DDFF203002E0081CFFF7D8FF10BDC046AA
:10048000FA210A4B70B5890005001868FFF762FE73
:1004900000F0B4FC04000120002C05D10238220039
:1004A000290000F05FFC200070BDC0460400002061
:1004B0000223084A10B5116800200B431360FFF7B0
:1004C000DFFF041E03D103F0BBFA200010BD01249E
:1004D000FBE7C04600200240024A13680133136064
:1004E0007047C04624000020014B18687047C04682
:1004F0002400002070B50400FFF7F6FF631C5A1EAD
:1005000093410500E418FFF7EFFF401B8442FAD83F
:1005100070BD0000084B13B5040008491868FFF7C8
:1005200019FE44430194019B002B00D113BD019B94
:10053000013B0193F7E7C0460400002040420F0052
:100540000321036870B59A6804000A40012A0DD19E
:10055000196811420AD0002070BD10230120626D7D
:1005600013436365A36D0343A365F5E799680F4AD9
:100570001142F2D101259A6828002A439A60FFF7B8
:10058000C9FFFFF7B1FF060023681B682B42E2D1C9
:10059000FFF7AAFF801B0A28F6D91023626D0120FD
:1005A00013436365A36D1D43A565D5E71700008060
:1005B000F7B504000120002C00D1D1E0694B22687E
:1005C0009A4204D0CE216848490003F038FA6268A4
:1005D000664B134016D0802051004908C005814267
:1005E00010D0802109068A420CD080225203934207
:1005F00008D080229203934204D09E215A48FF31B2
:1006000003F01DFA1823A2689A4304D0CF2156485C
:10061000490003F014FA2023E2689A4304D0A02191
:100620005148FF3103F00BFA2369013B012B04D938
:10063000D0214D48490003F002FA661CF37F012BDC
:1006400004D9A2214848FF3103F0F9F9A31C019312
:10065000DB7F012B04D9D1214348490003F0EFF996
:10066000434BA26A1A4204D0A4213F48FF3103F051
:10067000E6F9636A402219001800914380329043E2
:100680000FD08022520091420BD08032934208D08A
:10069000C13BFF3B012B04D9D2213348490003F071
:1006A000CEF923002C331B78012B04D9A6212E4828
:1006B000FF3103F0C4F904226369043B934304D07F
:1006C000D3212948490003F0BAF92A4B226B1A4278
:1006D00004D0A8212448FF3103F0B1F9A369012B0C
:1006E00004D9D4212048490003F0A9F9636B012BF8
:1006F00004D9AA211C48FF3103F0A1F9E369012BB9
:1007000004D9D5211848490003F099F9A36B072BA8
:1007100004D9AC211448FF3103F091F9E36B012BAC
:1007200004D9D6211048490003F089F9636D002BE4
:1007300006D122005032A3652000137003F096F911
:10074000636DDB0604D4042322689168194013D03A
:100750001023626D0120134363650023503423701E
:10076000FEBDC04600240140503F0008FFFFF3FFDC
:10077000FFF3FFFFFFEFFFFF636D6A48184002239E
:1007800003436365032390681840674B012802D137
:10079000176807421AD180256768ED057800400880
:1007A000A84204D080200006874200D09EE0106955
:1007B0008000800810611069074317611827D0680E
:1007C000A568B843D060D0682843D0601A685748FD
:1007D00002401A60626B1868520602431A60802356
:1007E00022685B059068184202D1906803439360C9
:1007F000D3684F4803402069D360D768E368022874
:1008000000D10421256BF07F2B43A5693B43AE0348
:10081000E5693343EE0333434603334326002C3666
:100820003678760033430B43C221D360636AFF31CD
:100830008B4204D0A56AD1682B430B43D360A31C21
:10084000DB7F012B06D100285CD18023D1685B02BD
:100850000B43D360E36B012B5CD1216C1C2905D8C1
:10086000344ACA409343DBB2002B04D09321324870
:10087000890003F0E4F8636C60221900914309D009
:10088000802907D080225200934203D02B492A4866
:1008900003F0D5F82A4BA26C1A4203D02949264806
:1008A00003F0CDF8226828491369606C0B4013618E
:1008B000236C11690343A06C03430B4313610123B1
:1008C00011690B4313610721236800205A698A4389
:1008D0005A615A69A16B0A435A610322A065636D8C
:1008E00093431A0001231343636539E71069174DD9
:1008F0008000800810611868284018601868074355
:100900001F605BE72021606D01436165A16D0B43B2
:10091000A3659FE7012113690B42D4D013698B4370
:10092000D0E7C046FDFEFFFF08270140FFFFFFFDA7
:100930001902FEFF11111111503F00084D02000075
:10094000FFFDFFFF4E02000003FCFFFFFFFFC3FFA0
:10095000F7B5244B0192026804000F009A4203D0BD
:100960002149224803F06BF8236802209B685B074B
:1009700030D4260050363378012B2BD0012333702E
:10098000E369012B27D1636D194A00251A408023A2
:100990005B0013436365E06C164BA5653570C3625D
:1009A000154B21680363154B43631C230B604A6896
:1009B0000C3B13434B600123CA681343CB603A00DE
:1009C0004031019B00F0F8FA042328002268916866
:1009D0000B439360FEBD2000FFF7B2FD0028F9D164
:1009E000D1E7C04600240140D9050000503F00086F
:1009F000FEF0FFFF050A0008770A0008850A0008D4
:100A0000704700005022836A10B5596D11422BD1F6
:100A1000596DB132FF320A43C0215A651A68090183
:100A2000D068084213D1591CC97F00290FD1116821
:100A300009070CD5916849070DD40C2051688143F2
:100A400051605A6D0A49114001220A435A65180043
:100A5000FFF7D6FF10BD2022596D0A435A650122C7
:100A6000996D0A439A65F2E7DB6C5B6B9847F1E797
:100A7000FEFEFFFF704710B5806AFFF7FBFF10BD59
:100A8000704770474023806A10B5426D1343436539
:100A90000423826D13438365FFF7F3FF10BD00004D
:100AA000444B026870B504009A4203D0424943485F
:100AB00002F0C5FF651CEB7F012B03D940493F487D
:100AC00002F0BDFF04226369043B934303D03D4918
:100AD0003A4802F0B4FF042223681968114202D098
:100AE0005968114206D10822196811422BD0596861
:100AF000114228D0626DD20604D48022616D92002A
:100B00000A436265C022D9681201114212D1EA7FFC
:100B1000002A0FD11A6812070CD59A6852073FD4E1
:100B20000C215A688A435A60636D274A1A40012390
:100B3000134363652000FFF763FFA369012B02D015
:100B40000C2223681A60802523681A682A420CD078
:100B50005B682B4209D08023626D5B02134363659F
:100B60002000FFF78DFF23681D601022236819689D
:100B7000114214D05968114211D0226B002A02D0C0
:100B8000DA68D20708D50222A16D20000A43A265C7
:100B900010221A60FFF775FF102223681A6070BDDB
:100BA0002023626D134363650123A26D1343A36584
:100BB000C0E7C0460024014094060000503F0008F2
:100BC0009506000096060000FEFEFFFF4B4B0268F4
:100BD00070B505000C009A4203D04949494802F01B
:100BE0002EFF2368012B36D0474A934233D0474A21
:100BF000934230D0464A93422DD0464A93422AD05F
:100C0000454A934227D0454A934224D0444A9342CE
:100C100021D0444A93421ED0434A93421BD0434AB8
:100C2000934218D0424A934215D0424A934212D07E
:100C3000414A93420FD0414A93420CD0404A9342DA
:100C400009D0404A934206D03F4A934203D03F49DD
:100C50002C4802F0F4FE63683D4A9B18012B04D92E
:100C6000F0212848C90002F0EAFE2E005036337801
:100C70000220012B0BD02A680138936830705B0783
:100C800006D520236A6D13436B650023337070BD56
:100C90008020304965682368C0028D421BD0956A68
:100CA0005903490B29439162034208D080232A4A01
:100CB0001B0411680A200B431360FFF72BFC236809
:100CC0009B0305D58023244ADB0311680B43136083
:100CD00000203070DBE7916A5C03640BA1439162F2
:100CE000034204D01C491D480A6802400A609B0365
:100CF000EED5194A1A4913680B40E8E70024014071
:100D00007E070000503F00080200000404000008B5
:100D10000800000C10000010200000144000001813
:100D20008000001C000100200002002400040028B4
:100D30000008002C00100030002000340040003873
:100D40000080003C00000448000002447F070000CF
:100D500000F0FFFF0110000008270140FFFF7FFFA8
:100D6000FFFFBFFF70B504000D00032903D98721E1
:100D7000164802F064FEA901002C14DA0F23E4B235
:100D80002340083B124A9B089B009B1803221440F7
:100D90009440FC3215000A40A540A240D869A843FF
:100DA0000243DA6170BD0325A3082C40AC40FC353A
:100DB0002E00084A9B009B18C022A6402940A14053
:100DC00092009858B04301439950EBE7883F0008E0
:100DD00000ED00E000E100E010B5041E03DA972109
:100DE000044802F02CFE1F231C401E3BA340024A75
:100DF000136010BD883F000800E100E0094A431E6F
:100E0000012093420DD8C021074A08485360036A65
:100E100009061B021B0A0B43036200200723906094
:100E200013607047FFFFFF0010E000E000ED00E0FE
:100E3000F8B504000120002C00D19EE023684F4A41
:100E4000934215D04E4A934212D04E4A93420FD04D
:100E50004D4A93420CD04D4A934209D04C4A93429A
:100E600006D04C4A934203D096214B4802F0E7FD4E
:100E700063680A2B06D90C3B032B03D997214648FC
:100E800002F0DDFDA36810221900914307D08022F3
:100E9000D201934203D098213F4802F0D0FD402375
:100EA000E2689A4303D099213B4802F0C8FD8023B1
:100EB00022699A4303D09A21374802F0C0FD636942
:100EC000364A134207D080229200934203D09B21DE
:100ED000314802F0B4FDA369314A134207D08022A1
:100EE0001201934203D09C212B4802F0A8FD20233D
:100EF000E2699A4303D09D21274802F0A0FD294BC7
:100F0000226A1A4203D09E21234802F098FD2568E8
:100F1000254B1421E818FFF71DF9244B80002364AA
:100F20000223A21D6064D3772E68214BA1681E4066
:100F3000E36827690B433B4367693B43A7693B432E
:100F4000E7693B43276A3B4333432B608023DB0144
:100F500099420CD01C2528400D3D854015490B6851
:100F6000AB430B6063680D6883402B430B6000202C
:100F70000123E0630534D377E077F8BD0800024031
:100F80001C00024030000240440002405800024071
:100F90006C00024080000240C33F0008FFFEFFFFDC
:100FA000FFFBFFFFFFCFFFFFF8FFFDBF0000024088
:100FB0000F80FFFFA8000240F7B515001F005A1E62
:100FC000234B04000E009A4204D9AB21214849006A
:100FD00002F035FD631DDA7F0220012A2AD00122AA
:100FE000DA77A21D9446D27F0021D2B2012A2CD1F9
:100FF0006346D8772368E16319681A309143196012
:10100000216C0191616C0840824001994A60A2689C
:101010005F602168102A0ED19D60DE60226B002A7D
:101020000CD00E22186802431A60012300200A68BF
:1010300013430B60FEBD9E60DD60EFE704201A687D
:1010400082431A6018680A22EDE7D977F2E7C046B2
:10105000FEFF0000C33F000870B5841DE37F022B34
:1010600004D00423C363033B180070BD0E21036842
:10107000456C1A688A431A60012219689143196005
:101080001C232B4015009D40016C431D4D60E277F1
:101090000024826BDC771300A242E5D09047230046
:1010A000E2E7F8B51C220427466C016C32403E0092
:1010B00096400D6803681C682E420DD03C420BD050
:1010C0001A68920602D41A68BA431A60036B4E601B
:1010D000002B19D0984717E002273E0096402E4279
:1010E00013D03C4211D01A68920606D40A241A681A
:1010F000A2431A600122831DDA770022431D4E604D
:10110000DA77C36A9342E5D1F8BD082637009740E5
:101110003D42F9D03442F7D00E251C68AC431C6028
:1011200001231C009440821D4C60C363D3770022CE
:10113000431DDA77436BE5E74B68F7B504000D0014
:10114000032B12D91A00113A012A0ED9854A864971
:101150001A40521885490A4207D0854A9B180B420B
:1011600003D0AE21834802F06AFCAB68022B03D99E
:10117000AF21804802F063FCA023DB059C420BD02A
:101180007D4B9C4208D07D4B9C4205D07C4B9C42C1
:1011900002D07C4B9C4207D12B689AB2002A03D024
:1011A000794A134393420DD0784B9C4206D12B6869
:1011B000774A134202D01343934203D0B0216D48C3
:1011C00002F03DFC00272B681A00FA4000D1F7BD61
:1011D0000122BA4001921A40009200D1C0E01022D0
:1011E0006B689343022B2CD1A023DB059C4212D0C9
:1011F000614B9C420FD0614B9C420CD0604B9C4297
:1012000009D0604B9C4206D0604B9C4203D0BF216A
:10121000584802F014FC2B69072B03D9C02155480C
:1012200002F00DFC07220F203A4092009040FB088C
:101230009B00E318196A81432869904002000A4321
:101240001A6210226B687E009343013B012B19D870
:10125000EB68032B03D9CE21464802F0F0FB0322B2
:10126000B240A368012193431A00EB68B3401343D3
:10127000A3606268019B9A436B681B090B40BB40EB
:101280001343636003239C46B34061466A68DB43B3
:101290001140B1402068184001432160E1681940C5
:1012A000AB68B3400B43E360D30059D50120394903
:1012B0000F264B6B034360463840800086404B63EB
:1012C000354BB9088900C9188B68B343A026019330
:1012D000F6050023B44214D0274E0133B44210D097
:1012E000264E0133B4420CD0254E6346B44208D09A
:1012F000244E0133B44204D0284BE3185E1EB341A0
:1013000005338340019803438B602549009B0E6899
:10131000D84333439C46D30302D4330003409C4656
:1013200063460B604E68009B33439C46930302D494
:10133000330003409C4663464B608E68009B3343FA
:101340009C46D30202D4330003409C4663468B6024
:10135000CE68009B3343920201D433000340CB603C
:10136000013730E7FFFFDFFF0000EFEFFFFFFEFF79
:101370000000DFEFFB3F00080004005000080050B1
:10138000000C005000100050FFFF0000001C005037
:1013900003060000001002400000014000E4FFAF1F
:1013A00000040140A02370B5DB0504000D00160009
:1013B00098420BD0154B984208D0154B984205D057
:1013C000144B984202D0144B98420AD1002D12D0EF
:1013D000012E16D99E211148FF3102F030FBA56184
:1013E00070BD0F4B984206D10E4B194203D01A0024
:1013F0000A439A42ECD0CE210848490002F01FFB74
:10140000E6E7002EEBD1A562EAE7C04600040050F3
:1014100000080050000C005000100050FB3F000876
:10142000001C00500306000070470000044B10B57C
:101430005A69104202D05861FFF7F6FF10BDC0464E
:101440000004014070B504000120002C00D18AE0A6
:1014500023684A4A93420AD0494A934207D0494AEC
:10146000934204D0EF214848490002F0E8FA474B84
:10147000A2689A4204D9E0214348FF3102F0DFFA22
:10148000E368013B012B04D9F0213F48490002F0F9
:10149000D6FA3F4E2369334204D0E2213A48FF3165
:1014A00002F0CDFA6369FF2B04D9F12136484900D7
:1014B00002F0C5FAA369072B04D9E4213248FF31B1
:1014C00002F0BDFA334BE2691A4204D0F2212E48F1
:1014D000490002F0B4FA304B226A1A4204D0E621E5
:1014E0002948FF3102F0ABFA250041352B78DBB2F9
:1014F000002B05D1220040321370200002F006FBC1
:10150000242301212B702368A0681A688A431A607B
:101510006168224A0A401A619A68E16832409A601A
:10152000012921D18022120202439A6059681C4A83
:1015300000200A435A60DA68616916402269DE6059
:101540000A43A16909020A43DA60216AE2690A438F
:101550001A60012219680A431A60202360642B7004
:1015600020634234207070BD8422120202439A60CC
:101570000229DBD1802212015A60D7E700540040D3
:10158000005800400078004034400008FF0300008D
:10159000FF7FFFFFFFFFF7FFFFFFFDFFFFFFFFF0F4
:1015A00000800002F8B51D4A036806000C00934253
:1015B00009D01B4A934206D01A4A934203D06421B1
:1015C000194802F03CFA194D2C4203D06521164807
:1015D00002F035FA41239C46B44463461A7802204F
:1015E000D2B2202A19D1370040373B78012B14D0D2
:1015F000242361460B700121336818688843186002
:10160000186805401D60186804431C601868014391
:101610001960002063461A703870F8BD005400400D
:1016200000580040007800406C400008FFEFFFFFCA
:10163000F8B51B4A036805000C00934209D0194A0B
:10164000934206D0184A934203D09221174802F0E1
:10165000F6F90F2C03D99321144802F0F0F92E006B
:10166000413632780220D2B2202A17D129004031E7
:101670000B78012B12D0242333702B6801381D689E
:101680000B4F85431D601D6824023D402C431C60A8
:101690001C6820431860002032700870F8BDC046F6
:1016A0000054004000580040007800406C400008A2
:1016B000FFF0FFFF0C22184B10B5D9680A40082A2A
:1016C00026D00C2A06D0042A1AD11B68DB0621D4A6
:1016D000124810BD8A021248120F825C0902D868B3
:1016E000890F0131C00304D50E485043FEF732FD87
:1016F000EFE71B68DB0601D50B48F6E70748F4E780
:1017000080205B6800021B045B0F01339840E0E718
:101710000448DEE70448DCE7001002400024F4003F
:101720005044000800127A0000093D00F0B50500A1
:1017300087B0002802D1012007B0F0BD0368002B5C
:1017400006D09B0604D1B021C748490002F077F9C2
:101750000C238027C54C7F02E2681A40E36801929F
:101760001F402B68DB0764D42B689B0700D5C0E0C3
:101770002B68DB0643D5019B002B00D02DE12368AD
:101780009B0502D5EB69002BD5D02B6AFF2B04D922
:101790008021B548890002F052F96B6AB44AB54914
:1017A0001A400B420BD0802109028A4207D0C02286
:1017B0001202934203D0B049AB4802F040F962688C
:1017C000AE496B6A0A401A43626061682A6A09027C
:1017D000090A12060A43626080225B0B013312027F
:1017E0009A401300E16800200A06A549120F8A5C9E
:1017F000D340A44A1360FEF743FE00289CD12B6817
:101800001B0700D55BE12B685B0700D584E12B68E3
:101810009B0600D5FDE1AB6A022B04D9BA219248A0
:10182000890002F00CF9AB6A002B00D02BE20020FB
:1018300082E76B68944E334208D0A022D2029342D2
:1018400004D06A218848FF3102F0F9F8019B082B87
:1018500003D00C2B08D1002F06D023689B0383D51F
:101860006B68002B80D166E780216B6849028B4250
:1018700014D1226813432360FEF736FE060080224F
:1018800023689202134200D06EE7FEF72DFEFA2382
:10189000801B9B009842F2D903204DE7A022D20280
:1018A000934208D180232268DB021343236022681D
:1018B0000A432260E0E722681640266022680A4058
:1018C0000592059A714922680A402260002BD3D103
:1018D000FEF70AFE0600802223689202134200D11E
:1018E00042E7FEF701FEFA23801B9B009842F2D9E3
:1018F000D2E72023EA689A43012A06D9092A04D0AC
:10190000CE215948490002F09AF82B691F2B04D9BF
:101910009E215548FF3102F092F82022EB681342D5
:1019200003D02168934311432160019A042A03D014
:101930000C2A24D1002F22D12268520702D5002B75
:1019400000D1F8E661682A695148120201400A4351
:101950000921626022688A4313432360FFF7AAFECD
:10196000E368474A1B061B0FD35CD840454B186001
:101970000020FEF785FD002800D1F9E6DCE6002B0B
:1019800019D00921226804278A4313432360FEF7F4
:10199000ABFD060023683B4207D062682B693C49D7
:1019A0001B020A4013436360E2E6FEF79DFD801BC5
:1019B0000228EFD970E701222368042793432360AC
:1019C000FEF792FD060023683B4200D1D0E6FEF709
:1019D0008BFD801B0228F6D95EE7EB69012B04D949
:1019E00086212148890002F02AF8EB69002B53D0A8
:1019F000802322685B0013432360FEF775FD802778
:101A00000600BF0023683B4227D02B6AFF2B04D976
:101A10008B211548890002F012F86B6A144A1549A7
:101A20001A400B420BD0802109028A4207D0C02203
:101A30001202934203D017490B4802F000F8636882
:101A40000E4A13406A6A1343636062682B6A12028B
:101A50001B06120A13436360D1E6FEF745FD801BA7
:101A60000228CFD918E7C046A7400008001002405E
:101A7000FFDFFFFFFF9FFFFF01020000FF1FFFFFCF
:101A80003844000804000020FFFFFEFFFFFFFBFFBB
:101A9000FFE0FFFF2D0200002368C04A80271340AB
:101AA0002360FEF721FD0600BF0023683B4200D102
:101AB000A5E6FEF719FD801B0228F6D9ECE66B6956
:101AC000012B03D9B649B74801F0B9FF6A69012370
:101AD000002A10D0226D022713432365FEF704FD70
:101AE0000600236D3B4200D08DE6FEF7FDFC801B17
:101AF0000228F6D9D0E6226D02279A432265FEF726
:101B0000F3FC0600236D3B4200D17CE6FEF7ECFCC3
:101B1000801B0228F6D9BFE6AB68A04A134207D063
:101B2000A022D200934203D09F499E4801F087FF34
:101B300080230021A26B5B0502911A4204D1A26BA3
:101B40001343A363012302938027984E7F003368D9
:101B50003B4208D08022AB685200934213D1226DE1
:101B60001343236534E033683B433360FEF7BCFC2A
:101B7000039033683B42EDD1FEF7B6FC039BC01ADD
:101B80006428F6D988E6002B16D1236D834A802776
:101B900013402365236D864ABF0013402365FEF77B
:101BA000A3FC0600236D3B422AD0FEF79DFC814B2F
:101BB000801B9842F6D96FE6A021C9008B420DD157
:101BC0008023216DDB000B432365236D1A432265BF
:101BD000FEF78AFC80270600BF000EE0236D6F4AE7
:101BE00013402365236D724A1340BAE7FEF77CFC6D
:101BF000704B801B984200D94EE6236D3B42F5D0D6
:101C0000029B012B00D002E6A36B6B4A1340A36337
:101C1000FDE5AB69012B03D96849624801F00FFF6C
:101C2000A9690123664A002918D0A168022719432F
:101C3000A160616B0B4363638023116A9B010B43BB
:101C40001362FEF751FC0600A3683B4200D0E2E5B8
:101C5000FEF74AFC801B0228F6D91DE6A168022780
:101C60009943A160136A57490B401362FEF73CFC8D
:101C70000600A3683B4200D1CDE5FEF735FC801B92
:101C80000228F6D908E6019A0C2A6AD04E4E022B99
:101C900055D14E4BEA6A1A4203D04D49414801F0F2
:101CA000CEFE2A6B4B4B13400BD0802149038B4255
:101CB00007D080239B039A4203D04749394801F05B
:101CC000BEFE80216A6B454BC90313408B4207D08F
:101CD00080231B049A4203D04149324801F0AFFEF1
:101CE00023681E402660FEF7FFFB80260700B6042F
:101CF000236833421DD1296BEB6AE2680B433949F3
:101D00000A4013436A6B80251343E36080232268F3
:101D10005B0413432360FEF7E7FB0600AD04236872
:101D20002B4200D083E5FEF7DFFB801B0228F6D9AB
:101D3000B2E5FEF7D9FBC01B0228D9D9ACE5236870
:101D400080251E402660FEF7CFFB0600AD04236809
:101D50002B4200D16BE5FEF7C7FB801B0228F6D9AA
:101D60009AE51800012B00D1E6E48022E368E96AD5
:101D700052021A4001208A4200D0DDE4F022296B91
:101D800092031A408A4200D0D6E4C02000040340E7
:101D9000686B181A431E9841C0B2CDE4FFFEFFFFE6
:101DA0004B020000A74000087702000000700040CE
:101DB000FFFBFFFF88130000FFFFFFEFBE020000E4
:101DC00000000140FFDFFFFFFFFFFFFEFFFFFEFF00
:101DD000F1020000FFFFF3FFF2020000FFFF7FFFB0
:101DE000F3020000FFFF02FFF7B504000F00002818
:101DF00001D10120FEBD03681B0703D17C497D484A
:101E000001F01DFE012F03D97B497A4801F017FE2E
:101E100001227A4D2B6813409F423AD823689B07D2
:101E200040D42368DB075FD401232A681A40974215
:101E300000D2BBE02368724D5B0700D5BEE023688B
:101E40001B0718D523696F4A13420DD0A0216E4A93
:101E5000C9001A408A4207D0C022D200934203D060
:101E60006A49644801F0EBFDEA6823696849DB00D0
:101E70000A401343EB60FFF71DFCEB68654A1B0645
:101E80001B0FD35CD840644B18600020FEF7F8FAB3
:101E9000B0E72B6893433B432B602B6813409F4272
:101EA000A7D1BBE7A36880221900914314D0202258
:101EB0001900914390290FD0402219009143A02985
:101EC0000AD0102219009143C02905D0F02B03D06D
:101ED0005249484801F0B3FDF021494AD3688B4389
:101EE000A1680B43D3609CE76368032B03D94C497B
:101EF000404801F0A4FD424E62683368022A1CD1BA
:101F00009B0300D475E70321F3688B431343F3600D
:101F1000FEF7EAFA63680190022B1BD10C22F368EA
:101F20001340082B00D17FE7FEF7DEFA019BC01AB1
:101F30003C4B9842F2D903205CE7032A02D19B0173
:101F4000E1D456E7012A02D15B07DCD451E79B05B7
:101F5000D9D44EE7032B0DD10C22F36813409342E2
:101F600000D161E7FEF7C0FA019BC01A2D4B9842E1
:101F7000F2D9E0E7012B13D00C22F368134200D111
:101F800052E7FEF7B1FA019BC01A264B9842F3D9EB
:101F9000D1E7FEF7A9FA019BC01A224B9842CAD892
:101FA0000C22F3681340042BF3D13DE72A689A43CF
:101FB0002A602A681A4200D01BE73BE7E368114A0F
:101FC00013420DD0A021104AC9001A408A4207D0FE
:101FD000C022D200934203D01349064801F02FFDDE
:101FE000EB68124A1340E2681343EB6027E7C046F0
:101FF00066030000A74000086703000000200240BD
:1020000000100240FFFBFFFFFFFDFFFFF103000098
:10201000FFC7FFFF38440008040000207E030000D3
:102020008503000088130000EA030000FFF8FFFFAB
:10203000044B054ADB685B055B0FD35C034A106801
:10204000D8407047001002404844000804000020B7
:10205000044B054ADB689B045B0FD35C034A1068A2
:10206000D840704700100240484400080400002097
:10207000F7B5934B026804009A4203D9672191484F
:1020800001F0DDFC23689B064DD563688E4A134240
:102090000DD098218D4A49031A408A4207D08C22DC
:1020A0009203934203D07321864801F0C8FC802339
:1020B0000021874D5B05AA6B00911A4204D1AA6BDF
:1020C0001343AB63012300938027824E7F00336864
:1020D0003B4200D1AFE0C022C02128686368920370
:1020E000104089021A40904200D0B6E02A6D0A40A2
:1020F00000D0BDE06168C0230A009B021A409A42EA
:1021000007D12B6874480340C020800301400B4373
:102110002B602B6D1A43009B2A65012B03D1AB6BFF
:102120006E4A1340AB632368DB070DD5A368032B0E
:1021300003D9DE21634801F082FC0321644AD36C99
:102140008B43A1680B43D36423689B070ED50C23F4
:10215000E2689A4303D0E9215A4801F070FC0C214F
:102160005B4AD36C8B43E1680B43D36423685B0702
:102170000DD55B4D23692B4203D0F321514801F06B
:102180005EFC534A2169D36C2B400B43D364236814
:102190001B0712D56369534A134207D0802292016C
:1021A000934203D0FD21474801F049FC484A4E497B
:1021B000D36C0B4061690B43D3642368DB0513D5F3
:1021C000A3694A4A134208D080229202934204D063
:1021D00084213C48490001F032FC3D4A3A49D36C25
:1021E0000B40A1690B43D36423685B060ED5404DB9
:1021F000236A2B4204D014213248FF3101F01FFC26
:10220000334A216AD36C2B400B43D36423680020EC
:102210001B0621D5374DE3692B4204D01C212948E8
:10222000FF3101F00CFC2A4AE169D36C00202B40FD
:102230000B43D36410E033683B433360FEF754F93B
:10224000019033683B4200D045E7FEF74DF9019B12
:10225000C01A6428F5D90320FEBD1A000A408A423C
:1022600000D043E72A680120920300D43EE7F3E759
:102270000B409A4200D13DE723689B0600D439E722
:1022800080232A6D286D1B0303432B652B6D0E499C
:102290001948114003402B652965D30500D429E76F
:1022A000FEF722F980270600BF002B6D3B4200D0CD
:1022B00020E7FEF719F9114B801B9842F5D9CAE7C0
:1022C000FF010000DF400008FFFFFCFFFFFFDFFF12
:1022D0000010024000700040FFFFCFFFFFFFFFEF44
:1022E000FFF3FFFFFFEFFFFFFFCFFFFFFFFFFEFF4B
:1022F000FFFFFFFBFFFFF3FFFFFFF7FF8813000067
:10230000A0210268F8B5D36804008B43D360FEF7C0
:10231000EBF8FA2706002025BF002368DB682B4274
:1023200001D00020F8BDFEF7DFF8801BB842F4D9D9
:102330000320F7E7F8B5402403680500DA68224275
:1023400001D00020F8BD01225242DA60FEF7CCF83D
:10235000FA270600BF002B68DB682342F1D1FEF7A5
:10236000C3F8801BB842F6D90320EBE770B5040030
:102370000125002859D0494B02689A4203D0E9212F
:10238000474801F05CFB402362689A4303D0EA218E
:10239000434801F054FBA3687F2B03D9EB2140484D
:1023A00001F04DFB3F4BE2689A4203D9EC213C48D7
:1023B00001F045FB3C4B22691A4203D0ED2138481D
:1023C00001F03DFB022362699A4303D0EE213448B9
:1023D00001F035FB354BA2691A4203D0EF2130489A
:1023E00001F02DFBE369012B03D9F0212C4801F00A
:1023F00026FBA61CF37FDBB2002B04D1621CD37733
:10240000200001F079FC0223CA22F3772368200020
:102410005A62773A5A62FFF78DFF2368051E06D08D
:10242000FF225A620423F3770125280070BD9A68C1
:102430001F4920690A409A60626899680243A0694E
:1024400002430A439A60E26860691A61A2681969E6
:1024500012040A4380211A61DA688A43DA60DA6C6E
:102460007D398A43DA64E269D96C02430A43DA644B
:102470009B689B060CD42000FFF742FF002807D082
:10248000FF22236801345A620423F377E577CBE710
:10249000FF2223685A620123F377C6E70028004031
:1024A0001A410008FF7F0000FFFF9FFFFFFFEFFFC3
:1024B000BFFF8FFFF0B585B0040002910192042A9E
:1024C00005D9062A03D03E493E4801F0B8FA3E4BF2
:1024D000029A9A4203D93D493A4801F0B0FA0223E0
:1024E000661CF27F1800012A58D00122E718F27703
:1024F000FB772368C9325A62773A5A629B685B0558
:1025000035D4236832499A680A409A60D968314ABA
:10251000C9B20A43DA60FDF7E7FF0390042223689B
:10252000DD6815403CD00721029A5A619A688A43B7
:102530009A609A680199114399608021264A49035B
:102540001068084310609068014391608022996888
:10255000D2010A439A6080229968D2000A439A60A5
:10256000FF2200205A620123FB77F07716E0FDF787
:10257000BBFF042503902368DB682B42C1D0FDF725
:10258000B3FF039BC01AFA239B009842F3D9FF22A2
:10259000236803205A620023F877F37705B0F0BD73
:1025A000FDF7A2FF039BC01AFA239B009842B5D9FE
:1025B000FF22032023685A62F877F577EEE7C046DA
:1025C0001104000052410008FFFF00001204000047
:1025D000FFFBFFFF7FFBFFFF00040140704700008F
:1025E000036810B5DB6804005B0507D5FFF7F6FF4D
:1025F0002168064BCA68D2B21343CB608022044BD9
:1026000052035A6101230234E37710BD7FFBFFFFC1
:1026100000040140036807491A680A401A609A6872
:102620002331FF318A439A602023836700230366A6
:102630007047C046DFFEFFFF436F10B5212B0DD161
:10264000010052310A880368002A08D180211A68E3
:102650008A431A60402219680A431A6010BDC46C8C
:1026600022880234D205D20D9A62C4640B88013BE1
:102670009BB20B80F2E7436F10B5212B0DD1010007
:1026800052310A880368002A08D180211A688A43D7
:102690001A60402219680A431A6010BDC26C14788F
:1026A00001329C62C2640B88013B9BB20B80F4E751
:1026B00070B5446F03000220202C30D1013800296E
:1026C0002DD0002A2BD080249D686401A54204D11E
:1026D0001C69002C01D1014221D11C0070342678E4
:1026E0000220012E1BD001382070D964190050310E
:1026F0000A804A800022DA675A6621325A678022AD
:10270000520195420CD11A69002A09D1054A5A662C
:102710001A6880230020116820700B43136070BD7D
:10272000014AF4E7392600087726000870B5846F5F
:1027300003000220202C41D1013800293ED0002A7C
:102740003CD080259C686D01AC4204D11D69002DF0
:1027500001D1014232D11D0070352E780220012EA8
:102760002CD0013828705965190058310A804A80E8
:10277000802000211A00196640015C32844220D179
:10278000196900291BD11849118000220121DA673B
:1027900022329A671A68906801439160802149014A
:1027A0008C421ED1196900291BD11049196690234A
:1027B000002011685B000B432870136070BDFF217F
:1027C000E2E7002C04D119690029F8D07F21DBE76A
:1027D000802040058442D7D119690029F6D03F21D5
:1027E000D2E70349E2E7C046FF0100005528000890
:1027F000F5270008826F10B50368222A23D1020052
:102800005C325B6A12881340426D13700200436DA4
:102810005A32013343651388013B9BB213801388FE
:102820009BB2002B0ED10268094C11682140116047
:1028300091682334FF34A1439160202203668267AC
:1028400000F0B0FE10BD082299690A439A61F9E7C9
:10285000DFFEFFFF826F10B50368222A21D104003A
:102860005C34596A2488426D214011800100023293
:1028700042655A310A88013A92B20A800A8892B2B5
:10288000002A0DD11968094C214019609968233438
:10289000FF34A143996020230266836700F082FE23
:1028A00010BD082299690A439A61F9E7DFFEFFFF2C
:1028B00070470000F8B503680400DA6918689E687C
:1028C00011070AD120210A4200D16AE0084268D0EB
:1028D000236E2000002B5AD15AE0012135000D4013
:1028E00003D190277F0038425BD00A4205D0C6054D
:1028F00003D51962E66F3143E16702210A4206D02F
:10290000002D04D01962E66F49183143E1670421B4
:102910000A4206D0002D04D01962E66F0239314315
:10292000E167110708D5810601D4002D04D00821E4
:102930001962E36F1943E167E36F002B28D020236E
:102940001A4206D0184204D0236E002B01D020007A
:1029500098472368E56F9B6820005B0602D4082334
:102960001D401AD0FFF756FE402123689A680A429C
:102970000FD09A68E06E8A439A60002809D01A4BFB
:102980008363FEF769FB002802D0E06E836B9847F3
:10299000F8BD2000FFF78CFFFAE7FFF789FFE56736
:1029A000F6E7802149030A4206D0750204D5196270
:1029B000200000F0D9FBEBE780210A4203D0084257
:1029C00001D0636E85E740210A42E1D00842DFD0A2
:1029D0001A6820008A431A60202363670023636615
:1029E00001F026F8D4E7C046ED290008806A0023EC
:1029F000020010B55A321380083A1380FFF758FFCF
:102A000010BD0000F8B54268AF4B04009A4203D9EC
:102A1000AE49AF4801F013F88022A36852059342F3
:102A200006D0AC4A134203D0AB49A94801F007F8DD
:102A3000AA4D2268E368AA4EAA4260D1A94A13426D
:102A400003D0A949A24800F0FAFF2369A74A13421C
:102A500007D0C022D200934203D0A5499C4800F081
:102A6000EEFF63690C221900914301D1002B03D1C1
:102A7000A049974800F0E3FF9F4BA2691A4203D098
:102A80009E49934800F0DBFF9D4BE2691A4203D058
:102A90009C498F4800F0D3FF2769A26823683A4316
:102AA00067691868E1693A43974F0A43384002431F
:102AB0001A605A68A0691640E26816435E60AB422D
:102AC00001D0226A10439A68904E324002439A60C5
:102AD0008F4A934220D103228E4BDB6C13408E4AE7
:102AE000D05C80231B02994200D1DEE0082833D855
:102AF000FDF71CFB9BA2A532C0323232C300334229
:102B000004D0AD217248090100F099FF834B226A7D
:102B10001A429AD0824995E7824A934205D10C2203
:102B20007C4BDB6C1340804ADAE7804A934200D149
:102B3000AFE07F4A934200D1ABE0AB4200D0A1E0CE
:102B4000C0218020734A0901D36CC0000B4083422E
:102B500038D003D8002B0AD001250DE080200001D9
:102B600083420ED08B42F7D1802000020DE0FFF7A8
:102B70005FFA0025A84208D1002328002366636677
:102B8000F8BD1368DB0620D54F48032263685A431B
:102B90008242E1D81A038242DED30027020E0102EC
:102BA0005E0889197A41080011001A003B00FDF700
:102BB0005DFB604BC218604B9A42CDD823683D0044
:102BC000D860D9E7FEF776FDD3E75C48DDE7FFF78D
:102BD0003FFA64E010254F4B61681A6848081540B9
:102BE00006D0574BC018FDF7B5FA002583B204E0B4
:102BF000544BC018FDF7AEFA83B219005248103991
:102C00008142A9D80F2118001B0788435B0F216858
:102C10000343CB60B0E7FEF74DFD40E06368580822
:102C200080235B023EE00023E7E7FFF701FA6368D9
:102C30005B08C01861680BE0FFF70AFAF7E7102598
:102C4000344B61681A684808154006D01E4BC018FE
:102C5000FDF780FA002583B204E0384BC018FDF779
:102C600079FA83B2190038481039814200D973E7E4
:102C70002168CEE7FEF71EFDD9E763685808802378
:102C80001B02D6E7802301251B029942CBD00023EB
:102C9000E8E780231B029942C7D1FFF7C9F96368AF
:102CA00040005B08C01861689DE7082800D953E719
:102CB000FDF746FAF3FF8DFF90FF52FFB1FF52FF81
:102CC00052FF52FFB4FFC04600093D00C80A000091
:102CD0009E410008FFEFFFFFC90A000000480040C6
:102CE000FFCFFFFFFFDFFFFFCC0A0000FFFBFFFF6E
:102CF000D40A0000D50A0000FFFCFFFFD60A00003E
:102D0000FF7FFFFFD70A0000F369FFEFFFF4FFFF2B
:102D100000380140001002408D410008FFF7FFFF1E
:102D2000D10A00000044004091410008004C0040DE
:102D30000050004000FDFFFFFFFC0F000024F400E6
:102D400000127A000048E801EFFF0000436A70B506
:102D50000400FF2B03D95549554800F070FE636A03
:102D6000DB070DD5534DA36A2B4203D0524950487F
:102D700000F065FE2268A16A53682B400B43536044
:102D8000636A9B070DD54D4DE36A2B4203D04C4936
:102D9000474800F054FE2268E16A53682B400B4319
:102DA0005360636A5B070DD5464D236B2B4203D0FE
:102DB00045493F4800F043FE2268216B53682B4091
:102DC0000B435360636A1B070DD5404D636B2B4269
:102DD00003D03F49364800F032FE2268616B5368E9
:102DE0002B400B435360636ADB060DD5394DA36B53
:102DF0002B4203D038492E4800F021FE2268A16BF7
:102E000093682B400B439360636A9B060DD5334D4B
:102E1000E36B2B4203D03249254800F010FE2268B4
:102E2000E16B93682B400B439360636A5B062AD582
:102E300023682C4A934206D02B4A934203D02B4955
:102E40001B4800F0FCFD2A4D236C2B4203D029497E
:102E5000174800F0F4FD2168226C4B682B401343A7
:102E60004B6080235B039A420DD1234D636C2B4250
:102E700003D022490E4800F0E2FD2268616C5368DD
:102E80002B400B435360636A1B060DD51C4DA36C8E
:102E90002B4203D01B49064800F0D1FD2268A16CEB
:102EA00053682B400B43536070BDC0469A0B000023
:102EB0009E410008FFFFFDFF9F0B0000FFFFFEFF8C
:102EC000A60B0000FFFFFBFFAD0B0000FF7FFFFF25
:102ED000B40B0000FFEFFFFFBB0B0000FFDFFFFFA5
:102EE000C20B00000038014000440040C90B000044
:102EF000FFFFEFFFCA0B0000FFFF9FFFCF0B00009B
:102F0000FFFFF7FFD70B0000F8B504000E00150017
:102F10001F002268D36933409B1B59424B41AB428F
:102F200001D000201BE0069B0133F3D0FDF7DCFA53
:102F3000069BC01B834201D3002BEAD123680849BA
:102F40001A6803200A401A609A68A331FF318A4345
:102F50009A6020236367A367002370342370F8BD51
:102F60005FFEFFFFF0B587B00593436F04000D00CF
:102F700017000220202B49D10138002946D0002A11
:102F800044D08023A2685B019A4204D12369002BBC
:102F900001D101423AD1230070331A780220012A6C
:102FA00034D0012200261A702123E6676367FDF7FB
:102FB0009BFA230050331F80023303931F8080232A
:102FC000A26804905B019A4204D12369B34201D103
:102FD0002E001D00230052331A88059B92B20093E5
:102FE000049B002A0AD140212000FFF78DFF002812
:102FF0000BD1202370346360207007E00022802111
:103000002000FFF781FF002802D0032007B0F0BDA9
:103010002268002D0BD133880236DB05DB0D93626D
:10302000039B039A1B88013B9BB21380D2E72B784A
:1030300001359362F4E7000073B500260400C6670B
:10304000FDF752FA236805001B681B0715D4236897
:103050001B685B070AD580210E4B00220093C90331
:103060002B002000FFF750FF002811D12023002063
:103070006367A367703420700BE08021054B32003A
:103080000093890303002000FFF73EFF0028DED0F5
:10309000032076BDFFFFFF0110B5041E01D1012002
:1030A00010BD81690368294A00293ED0934210D09F
:1030B000274A93420DD0274A93420AD0264A934288
:1030C00007D0264A934204D03021FF31244800F033
:1030D000B6FC636F002B05D1220070321370200004
:1030E00000F046FD24230121226863671368200055
:1030F0008B431360FFF786FC0128D0D0636A002B56
:1031000002D02000FFF722FE236816495A682000EB
:103110000A402A215A609A688A439A6001221968F3
:103120000A431A60FFF788FFBAE79342D1D0084AF2
:103130009342CED0074A9342CBD0074A9342C8D09D
:10314000064A9342C5D09A214900BFE700380140A2
:1031500000440040004C0040005000400048004047
:103160009E410008FFB7FFFF7047000010B50A4CF2
:103170002000FCF7D3FF0023834201D1002010BDC3
:10318000E21811784F2902D152784B2A01D001332D
:10319000F2E70120F3E7C046EC02002000234118CB
:1031A000884200D1704703700130F9E7F7B5FA2281
:1031B000050000AF52000021304800F089FE2800D1
:1031C000FCF7ACFF6B46C41C0A30C008C0001B1AD9
:1031D0009D462900684600F090FEA4B22849684642
:1031E00000F07EFE220069462648FFF761FA0023C0
:1031F0007B6098420AD1220069462348FFF758FABB
:1032000096204000FDF776F901237B601F4E204C8D
:10321000328821001B48FFF789FA28001D49FCF776
:1032200073FFFA25002824D1ED007B68012B1ED105
:103230002800FDF75FF90023124A5A321380164A1C
:103240001370104A54653268DEB2934202D2E15CD8
:10325000002910D1FA2221005200084800F055FE42
:103260002800FDF747F931002000FFF797FFBD4622
:10327000F7BDAD00D9E701339BB2E5E7EC020020D2
:103280004C3F0008E00400206C02002000000020F9
:1032900060050020D741000854070020F8B59A487F
:1032A00000F0A2FB994800F09FFB8021A0200122A2
:1032B000C900C005FEF776F8FA208000FDF71AF97C
:1032C000012204219248FEF76DF89248FDF712F9A9
:1032D000012220218E48FEF765F88F4800F084FB1C
:1032E0008E48FDF707F96526FFF740FF8C4F8D4CA0
:1032F0008D4D002803D1013E002E00D0F3E03800B0
:10330000FFF754FF200000F06FFB8848FFF74EFFE7
:103310000A20FDF7EFF88648FFF748FF200000F08D
:1033200063FB0A20FDF7E6F88248FFF73FFF200025
:1033300000F05AFB804800F057FB280000F054FBD7
:103340007E48FFF733FF200000F04EFB0A20FDF718
:10335000D1F87B4800F048FB280000F045FB794895
:10336000FFF724FF200000F03FFB0A20FDF7C2F822
:10337000754800F039FB280000F036FB7348FFF772
:1033800015FF200000F030FB0A20FDF7B3F870486D
:1033900000F02AFB280000F027FB6E48FFF706FF2D
:1033A000200000F021FB0A20FDF7A4F86A4800F095
:1033B0001BFB280000F018FB6848FFF7F7FE200011
:1033C00000F012FB0A20FDF795F8654800F00CFBB1
:1033D0006448FFF7EBFE0A20FDF78CF8200000F0B0
:1033E00003FB6148FFF7E2FE0A20FDF783F82000A7
:1033F00000F0FAFA5D48FFF7D9FE0A20FDF77AF8E7
:10340000200000F0F1FA5A48FFF7D0FE0A20FDF73D
:1034100071F8200000F0E8FA5648FFF7C7FE0A20CE
:10342000FDF768F8200000F0DFFA5348FFF7BEFE12
:103430000A20FDF75FF8200000F0D6FA4F48FFF7AA
:10344000B5FE0A20FDF756F8200000F0CDFA4C48F2
:10345000FFF7ACFE0A20FDF74DF8200000F0C4FA9B
:103460004848FFF7A3FE200000F0BEFA0A20FDF74F
:1034700041F84548FFF79AFE200000F0B5FA0A200F
:10348000FDF738F84148FFF791FE200000F0ACFA54
:103490000A20FDF72FF83E48FFF788FE200000F0D5
:1034A000A3FA0A20FDF726F83A48FFF77FFE20002E
:1034B00000F09AFAFA208000FDF71CF83648FFF772
:1034C00075FE200000F090FAFA208000FDF712F857
:1034D0003248FFF76BFE200000F086FAFA208000E9
:1034E000FDF708F8F8BD6420FDF704F83800FFF791
:1034F0005DFE200000F078FA294800F075FA2800F7
:1035000000F072FAF0E6C046E4410008F04100081D
:1035100000040050B80B0000FE4100081027000016
:103520000F420008EC0200200C420008174200087D
:103530001C420008264200082F4200084B420008A7
:1035400053420008684200087042000884420008A4
:103550008C420008A4420008AC420008B9420008AE
:10356000C2420008DA420008F84200080B43000893
:103570001E43000829430008D741000833430008D0
:103580003F4300084B4300085843000871430008BC
:1035900092430008AA430008B5430008E24300082C
:1035A0001542000870B50124104A036810491470D0
:1035B0008B420CD10F4D1470290022000E48FFF7EA
:1035C00077F8220029000D48FFF7B0F870BD0C4ACB
:1035D0009342FBD10B4D0C4C2A8821000748FFF782
:1035E00067F82A68210092B20348EDE7BC0000208A
:1035F0000048004054070020E00400206C02002036
:1036000000500040000000206005002010B59CB074
:10361000382200210EA800F05BFC1422002168462D
:1036200000F056FC2422002105A800F051FC1749A7
:10363000174A0B6800241A4080231B0113430B60B8
:1036400018230E93173B13931593A0230EA81B0268
:10365000179316941894FEF769F80F232100684613
:1036600000930194029403940494FEF7BDFB2F236E
:103670000593802305A89B020794089409940A9453
:103680000693FEF7F5FC1CB010BDC046007000406C
:10369000FFE7FFFFF0B58BB0FCF70AFFFFF7B6FFBF
:1036A0001422002105A800F013FC04228021B34D50
:1036B0000126EB6AA0201343EB62EB6AC0051340BE
:1036C0000193019BEA6A00240A43EA620222EB6A40
:1036D00003270B400293029BEB6A60393343EB6292
:1036E000EB6A33400393039BEB6A1343EB62EB6A91
:1036F000134004933200049BFDF754FE3200A049AE
:10370000A048FDF74FFE9F21A02000220902C0051E
:10371000FDF748FE002220219A48FDF743FE802352
:1037200005A99B019848059306940794FDF704FDAD
:10373000C02305A91B029448059306970794FDF73B
:10374000FBFC05A99148059706970794FDF7F4FC43
:10375000A020202305A9C005059308970696079485
:10376000FDF7EAFCA020C02305A9C0050593069437
:103770000794FDF7E1FC864B05A90593854B81482D
:1037800006930794FDF7D8FC042305A905937D480B
:103790000D33069307960894FDF7CEFC7E4B05A9E2
:1037A00078480593069607940894FDF7C5FC802396
:1037B000A0205B00059305A9FE3BC0050793089375
:1037C0000696FDF7B9FC9E23A0201B0205A9C005A3
:1037D0000593069607940894FDF7AEFC220021009D
:1037E0000520FDF7BFFA0520FDF7F6FA22002100BB
:1037F0000720FDF7B7FA0720FDF7EEFA2B6B220042
:1038000033432B632B6B2100334000930920009B33
:10381000FDF7A8FA0920FDF7DFFA0822210005A824
:1038200000F056FB5D4D5E4B28002B60C0231B064D
:103830006B60AB19DC77AB1CDC77C223FF336B62A8
:103840002B002C331C700423EC636B61AC60AC6305
:103850002E61EC60AC622C63AC616C63EC61FCF7D4
:10386000A7FE504B05A90593802328005B01069312
:10387000FDF7ACF94C4B05A928000593FDF7A6F917
:103880003A004A492800FDF763F8494D494B2800A2
:103890002B60E123DB006B60AC60EE602C616C613F
:1038A000AC61EC612C629627FDF7CCFD210028006D
:1038B000FDF778FE28000C252100FDF7B9FE3E48F3
:1038C0003E4BBF010360456147608460C460046192
:1038D000846104624462FFF7DFFB3948394B45617C
:1038E000036047608460C46004618461C4610462F1
:1038F0004462FFF7D1FB3448344B456103604760B5
:103900008460C46004618461C46104624462FFF73E
:10391000C3FB2F482F4B45610360E1235B024360EB
:103920008460C46004618461C46104624462FFF71E
:10393000B3FB2948294B4561036047608460C4603C
:1039400004618461C46104624462FFF7A5FB244DF5
:10395000244B28002B607F23AB608033EB606C60CE
:103960002C616C61AC61EC61FEF700FD042231005A
:103970002800FEF79FFDFFF791FCFEE700100240D4
:1039800004C000000004005000080050001C00505B
:10399000033000000000111020C00000900800203B
:1039A0000024014010000010000004485C020020C8
:1039B00058070020005400406C02002000480040DE
:1039C0000C01002000380140D401002000440040D8
:1039D000C8070020004C0040E004002000500040D8
:1039E000A407002000280040F7B500AF0500FCF751
:1039F00095FB6A46C31DDB08DB00D31A9D462900F0
:103A00000400684600F079FA6E466D46AB1B9C4296
:103A100001DCBD46F7BD2B7801223B71391D0A231D
:103A20000248FFF79FFA0135F0E7C0466C0200201C
:103A30000122014B1A707047BC000020704770478C
:103A40000122094B10B5596B04200A435A638022A6
:103A5000996B52050A439A6300221100FDF782F91F
:103A60000420FDF7B9F910BD0010024030B5050083
:103A700087B01422002101A800F02AFA1F4B2A68FF
:103A80009A4238D180221E4B9200596BA0200A43E3
:103A900001215A63DA6AC0050A43DA62DB6A0B4025
:103AA0000093009B102301A901930D3B0293FDF7A6
:103AB00043FB8022134C144B2261921862618022D6
:103AC00012012360A2610023202220006360A36012
:103AD000E360E2612362FDF7ABF9002801D0FFF754
:103AE000ADFF00220C20EC641100A562FDF73AF94D
:103AF0000C20FDF771F907B030BDC046002401402D
:103B000000100240480800200800024010B50400E0
:103B100086B01422002101A800F0DAF9114B2268C6
:103B20009A421CD10221104C1048E26A0A43E26218
:103B3000E36A0B400093009BC0239B000193122378
:103B40000293113B03935B18049301A9013305937E
:103B5000FDF7F2FA8023A26B9B031343A36306B025
:103B600010BDC04600540040001002400004005048
:103B700010B504008AB01422002105A800F0A8F9AD
:103B80002368564A934223D18022554BD202996B27
:103B900054480A439A630222D96A1143D962DB6A04
:103BA00005A913400093009BC0231B010593032329
:103BB0000893013306920993FDF7BEFA00221D20F7
:103BC0001100FDF7CFF81D20FDF706F90AB010BD72
:103BD000454A93421DD18022414BD201596B414845
:103BE0000A435A630222D96A1143D962DB6A05A9E2
:103BF00013400193019BC0230593BD3B069208939C
:103C0000FDF79AFA00221B201100FDF7ABF81B20EC
:103C1000DAE7364A934221D18022314B9202996BE6
:103C2000A0200A4301219A63DA6AC0050A43DA62D6
:103C3000DB6A0B400293029B0C2305930A3B06931D
:103C40005B1808935B1805A90993FDF775FA002224
:103C50001C201100FDF786F81C20B5E7244A93428A
:103C600020D180221E4B1203996BA0200A43012110
:103C70009A63DA6AC0050A43DA62DB6A02220B4001
:103C80000393039B032305930893DB180692099380
:103C900005A9FDF751FA00220E201100FDF762F888
:103CA0000E2091E7134A934200D08FE780220C4BFD
:103CB0005203996B0B480A439A630222D96A114353
:103CC000D962DB6A05A913400493049B182305936A
:103CD000153B0893033306920993DAE70048004046
:103CE0000010024000040050003801400044004031
:103CF000004C004000500040094B026810B59A4249
:103D00000DD18023074ADB02116D02200B4313659E
:103D100000221100FDF726F80220FDF75DF810BD26
:103D200000280040001002407047FEE770477047CF
:103D300010B5FCF7D1FB10BD10B50248FEF750FCE2
:103D400010BDC046A4070020704710B50120FDF744
:103D50006DFB0220FDF76AFB10BD802010B540010D
:103D6000FDF764FB80208001FDF760FB10BD0000C3
:103D700010B50248FDF795F910BDC046480800206F
:103D800010B50248FCF78CFE10BDC046900800201C
:103D900010B50348FEF78EFD0248FEF78BFD10BDFF
:103DA000C8070020E004002010B50248FEF782FD9D
:103DB00010BDC0460C01002010B50248FEF77AFD88
:103DC00010BDC046D401002010B50248FEF772FDB8
:103DD00010BDC0466C0200208022104B52001968B2
:103DE0000A431A60DA680E490A40DA601A680D4917
:103DF0000A4001211A609A688A439A601A680A493F
:103E00000A401A60DA6809490A40DA6000221A6139
:103E10008022074B12059A607047C046001002408E
:103E20000C40FF88F6FFF6FEFFFFFBFFFFFF02FFDF
:103E300000ED00E00D488546002103E00C4B5B5887
:103E4000435004310B480C4B42189A42F6D30B4AAC
:103E500002E0002313600432094B9A42F9D3FFF7C2
:103E6000BBFF00F011F8FFF715FCFEE70050002043
:103E70006C4400080000002008000020080000201A
:103E8000EC080020FEE7000070B500260C4D0D4C3C
:103E9000641BA410A64209D1002600F04BF80A4D7D
:103EA0000A4C641BA410A64205D170BDB300EB58A8
:103EB00098470136EEE7B300EB5898470136F2E732
:103EC000644400086444000864440008684400082E
:103ED00003008218934200D1704719700133F9E74B
:103EE000020010B51378002B05D1CC5CD4540133FB
:103EF000002CFAD110BD0132F4E7031C0A7801311D
:103F00001A700133002AF9D1704770B50400002AF5
:103F100000D170BD0D78561E631C25700131002D37
:103F200005D1A4189C42F4D01D700133FAE71C009F
:103F30003200ECE7F8B5C046F8BC08BC9E467047B6
:0C3F4000F8B5C046F8BC08BC9E467047AF
:103F4C000D0A00002E2E5C447269766572735C5308
:103F5C00544D33324C3078785F48414C5F44726931
:103F6C007665725C5372635C73746D33326C30784B
:103F7C00785F68616C5F6164632E63002E2E5C4415
:103F8C007269766572735C53544D33324C30787869
:103F9C005F48414C5F4472697665725C5372635C36
:103FAC0073746D33326C3078785F68616C5F636FFB
:103FBC00727465782E63002E2E5C4472697665727D
:103FCC00735C53544D33324C3078785F48414C5FBE
:103FDC004472697665725C5372635C73746D3332D0
:103FEC006C3078785F68616C5F646D612E63002E55
:103FFC002E5C447269766572735C53544D33324C4B
:10400C003078785F48414C5F4472697665725C53D6
:10401C0072635C73746D33326C3078785F68616C8A
:10402C005F6770696F2E63002E2E5C447269766533
:10403C0072735C53544D33324C3078785F48414C3A
:10404C005F4472697665725C5372635C73746D3332
:10405C00326C3078785F68616C5F6932632E630014
:10406C002E2E5C447269766572735C53544D3332F8
:10407C004C3078785F48414C5F4472697665725C6D
:10408C005372635C73746D33326C3078785F686133
:10409C006C5F6932635F65782E63002E2E5C447210
:1040AC0069766572735C53544D33324C3078785F5B
:1040BC0048414C5F4472697665725C5372635C7301
:1040CC00746D33326C3078785F68616C5F726363E7
:1040DC002E63002E2E5C447269766572735C5354A9
:1040EC004D33324C3078785F48414C5F447269767E
:1040FC0065725C5372635C73746D33326C307878B8
:10410C005F68616C5F7263635F65782E63002E2E4F
:10411C005C447269766572735C53544D33324C3027
:10412C0078785F48414C5F4472697665725C537273
:10413C00635C73746D33326C3078785F68616C5F7C
:10414C007274632E63002E2E5C44726976657273F2
:10415C005C53544D33324C3078785F48414C5F445B
:10416C0072697665725C5372635C73746D33326C16
:10417C003078785F68616C5F7274635F65782E630A
:10418C00000104020800101010041010100210108E
:10419C0010082E2E5C447269766572735C53544D14
:1041AC0033324C3078785F48414C5F4472697665A5
:1041BC00725C5372635C73746D33326C3078785FFD
:1041CC0068616C5F756172742E630041542B55509D
:1041DC005344413D312C33004750525320494E49F2
:1041EC00540D0A004750525320505752204F4E0D39
:1041FC000A0047505253204F4E20454E41424C45E9
:10420C000D0A004154264B30002E0041544530001D
:10421C0041542B434D45453D320041542B435049AD
:10422C004E3F004D616E75666163747572657220E8
:10423C006964656E74696669636174696F6E004167
:10424C00542B43474D49004D6F64656C2069646580
:10425C006E74696669636174696F6E0041542B43B7
:10426C00474D4D00494D4549206964656E7469663A
:10427C0069636174696F6E0041542B4347534E0060
:10428C0053494D2043415244206964656E746966FC
:10429C0069636174696F6E0041542B434349440058
:1042AC00434C4F434B205354415455530041542BD2
:1042BC0043434C4B3F005649564F204E4554574FA5
:1042CC00524B2052454749535445520D0A00415414
:1042DC002B555053443D312C312C227A61702E7663
:1042EC0069766F2E636F6D2E6272220041542B55CE
:1042FC005053443D312C322C227669766F2200418A
:10430C00542B555053443D312C332C227669766F07
:10431C00220041542B43474154543D310041542B0E
:10432C00435245473D310041542B555053443D3188
:10433C002C380041542B555053443D312C30004106
:10434C00542B5550534E443D312C300041542B5579
:10435C0044454C46494C453D2275706C696E6B2E3C
:10436C00667373220041542B5544574E46494C45B5
:10437C003D2275706C696E6B2E667373222C313016
:10438C002C224F4B220041542B55524446494C454C
:10439C003D2275706C696E6B2E66737322004154EE
:1043AC002B55485454503D310041542B55485454CE
:1043BC00503D312C312C2277697A65626F782D61F2
:1043CC0070692D6465762E6865726F6B756170709F
:1043DC002E636F6D220041542B5548545450433D6D
:1043EC00312C302C222F736967666F782F75706CA7
:1043FC00696E6B3F6465766963653D34354332386D
:10440C003826646174613D30323234314433444572
:10441C0031343137414643413132333435222C2249
:10442C007465737465312E7478742200000000007A
:10443C000000000001020304060708090000000048
:10444C0001020304030406080C10182030000000BD
:08445C0050BEFF7F01000000CB
:04446400E900000863
:04446800C100000887
:08446C00F40100000000200033
:0400000508003E357C
:00000001FF
